:020000040000FA
:0400000022EF00F0FB
:1000080001829EAA0AEF00F00CEF00F020EF00F04A
:10001800ACA211EF00F013EF00F016EF00F0AC986F
:1000280000F0AC889E9AAF28AE6EADA21EEF00F02D
:1000380020EF00F019EF00F0019211003EEF00F000
:10004800720ED36EF28EF28C9E9A9D8A9F8A31EC44
:1000580000F02DEF00F022EF00F0949C948E1F0E1C
:10006800B06EAD9EAD9CAD8AAD98AD947E96900E67
:0E007800AC6E120001900192000124EF00F026
:020000040001F9
:08FFF800BEF7FFFFFFFBFFFB5A
:00000001FF
